:020000040800F2
:10000000700800209D0100082B2B0008FB2400082D
:10001000292B0008B5070008ED3500080000000096
:10002000000000000000000000000000F32B0008AA
:10003000B707000800000000F12B0008F92D0008A8
:10004000B7010008B7010008B7010008B7010008B0
:10005000B7010008B7010008B7010008B7010008A0
:10006000B7010008B7010008B7010008B701000890
:10007000B7010008B7010008B7010008B701000880
:10008000B7010008B701000879060008B7010008A9
:10009000B7010008B7010008B7010008B701000860
:1000A000B7010008B7010008B7010008B701000850
:1000B000B7010008B7010008B7010008B701000840
:1000C000B7010008B7010008B7010008B701000830
:1000D000B7010008B7010008E5340008B7010008BF
:1000E000B7010008B7010008B7010008B701000810
:1000F000B7010008B7010008B7010008B701000800
:10010000B7010008B7010008B7010008B7010008EF
:10011000B7010008B7010008E12E0008ED2E000825
:10012000B7010008B7010008B7010008B7010008CF
:10013000B7010008B7010008B7010008B7010008BF
:10014000B7010008B7010008B7010008B7010008AF
:10015000B7010008B7010008B7010008B70100089F
:10016000B7010008B7010008B7010008B70100088F
:10017000B7010008B7010008B7010008000000003F
:10018000B7010008B7010008DFF80CD000F062FAF0
:1001900000480047B5360008700800200648804730
:1001A00006480047FEE7FEE7FEE7FEE7FEE7FEE75C
:1001B000FEE7FEE7FEE7FEE78D2E00088901000856
:1001C0002DE9F05F0546002092469B46884606468C
:1001D000814640241BE0284641464746224600F01F
:1001E00083F953465A46C01A914110D31146184616
:1001F000224600F06AF92D1A67EB01084F462246A5
:100200000120002100F061F917EB00094E41201E8A
:10021000A4F10104DFDC484631462A464346BDE8E6
:10022000F09FD2B201E000F8012B491EFBD27047CB
:100230000022F6E710B513460A4604461946FFF7B2
:10024000F0FF204610BD2DE9FE4F804681EA0300F5
:10025000C00F0C46009021F0004123F00045B8EBA0
:100260000200A94105D24046214690461C460B4655
:10027000024623F00040104347D0270DC7F30A0081
:10028000C3F30A510290401A019040286BDAC3F37D
:10029000130040F4801B0098924620B10023D2EB5B
:1002A000030A63EB0B0B01985946C0F1400250461C
:1002B00000F00BF906460D4650465946019A00F0EB
:1002C00023F910EB08006141002487EA115284EA07
:1002D000E7731A4340D0009A62B3019A012A4FEAA9
:1002E000075215DC001B61EB02014FF0004202EAED
:1002F0000752CDE90042001C41F5801132462B46E1
:1003000000F05AF903B0BDE8F08F40462146F9E706
:10031000001B61EB0201001C41F5801300185B41DA
:100320002018A2F5001747EB030140EAD570B61973
:100330006D4111E06D084FEA360645EAC0754FEA97
:100340000752001B61EB0201001C41F580114908B6
:100350004FEA30000019514132462B4603B0BDE848
:10036000F04F00F01AB90098012240000023D0EBB2
:10037000020263EBE073009821464FEAE074B8EBA9
:10038000000061EB0401E9E783F000435BE781F0E3
:10039000004158E72DE9FE4F81EA030404F00044D0
:1003A00021F0004100944FF0000B23F0004350EA8D
:1003B00001045ED052EA03045BD0C3F30A54C1F3D4
:1003C0000A552C44A4F2F3340194A0FB0254C1F367
:1003D000130141F48011C3F3130343F4801301FBB1
:1003E000024400FB034E840A970A44EA815447EA18
:1003F0008357A4FB076802958D0A05FB07854FEA22
:10040000932C04FB0C542705029D4FEA065847EA3B
:100410001637B5EB08056EEB070C870E920E47EA10
:10042000811742EA8312A7FB0201B6EB0B0164EBD2
:1004300000042B0D43EA0C335E1844EB1C50DA46E3
:100440005146E7FB0201C5F313044FEA0B3343EABD
:1004500014534FEA0432019C43EA0603A4F10C044E
:100460000294009CCDE900B400F0A6F803B0BDE80A
:10047000F08F00200146F9E70EB540F233410291BA
:100480000021CDE900110A460B4600F095F803B0B3
:1004900000BD01F0004330B421F0004150EA0102F8
:1004A00006D00A0DA2F56072C1F31301002A02DC26
:1004B00030BC00207047440F44EAC104C100E0187A
:1004C00030BC00EBC25000F031B8202A04DB203AE7
:1004D00000FA02F1002070479140C2F1200320FA97
:1004E00003F3194390407047202A04DB203A21FA95
:1004F00002F00021704721FA02F3D040C2F120023D
:100500009140084319467047202A06DBCB17203A52
:1005100041FA02F043EAE07306E041FA02F3D04008
:10052000C2F1200291400843194670470029A8BF34
:100530007047401C490008BF20F00100704710B40C
:10054000B0FA80FC00FA0CF050EA010404BF10BCC1
:10055000704749B1CCF1200421FA04F411FA0CF1EE
:1005600018BF012121430843A3EB0C01CB1D4FEA27
:1005700000614FEA102042BF002010BC704700EB22
:10058000C35010440029A4BF10BC7047401C490050
:1005900008BF20F0010010BC704710B5141E73F1A5
:1005A000000408DA401C41F1000192185B411A4333
:1005B00001D120F0010010BD2DE9F04D92469B467F
:1005C00011B1B1FA81F202E0B0FA80F22032904625
:1005D000FFF77BFF04460F4640EA0A0041EA0B01A1
:1005E00053465A46084313D0114653EA010019D026
:1005F000C8F140025046FFF777FF05460E465046C9
:1006000059464246FFF761FF084305D0012004E048
:1006100020463946BDE8F08D0020054346EAE076E5
:100620002C4337430A986305E40AA0EB0800002234
:10063000FD0A44EA47540A3002D500200146E9E7A2
:10064000010510196941DDE9084500196941BDE856
:10065000F04DA2E7064C074D06E0E06840F00103CC
:1006600094E8070098471034AC42F6D3FFF790FDAA
:10067000303A0008503A0008014800F05BB9000029
:10068000280000204A494A6822F440324A604A68F9
:1006900043681A434A6001684A6822F480724A60DB
:1006A00001684A68036942EA03224A6001684A68AD
:1006B00022F040724A6001684A6883681A434A60BF
:1006C00001688A6822F400628A6001688A68C368E7
:1006D0001A438A60816A6FF07062D14214D0016857
:1006E0008A6822F070628A6001688A68836A1A43A5
:1006F0008A6001688A6822F040528A6001688A68CC
:10070000C36A1A438A6009E001688A6822F070624D
:100710008A6001688A6822F040528A6001688A68AB
:1007200022F002028A6001688A68037E42EA43027C
:100730008A6090F8201089B101684A6842F400622A
:100740004A6001684A6822F460424A6001684A6867
:10075000436A5B1E42EA43324A6004E001684A6829
:1007600022F400624A600168CA6A22F47002CA6216
:100770000168CA6A838B5B1E42EA0352CA6201683F
:100780008A6822F400728A6001688A6890F83030C2
:1007900042EA43228A6001688A6822F480628A60A1
:1007A00001688A68406942EA8020886070470000DA
:1007B00000230140FEE77047FEE7704738B44FF072
:1007C000000CCDF800C090F83C20012A1BD001227B
:1007D00080F83C200A680724092A17D90368DD68D5
:1007E0000A3A02EB420204FA02F225EA0202DA6055
:1007F0000A788B680A3A02EB420293400268D46896
:100800002343D36014E038BC0220704703681D699D
:1008100002EB420204FA02F225EA02021A610A78A5
:100820008B6802EB42029340026814692343136110
:100830004A681F24072A15D203685D6B521E02EB1B
:10084000820204FA02F225EA02025A630A8893B28B
:100850000A79521E02EB820293400268546B2343D2
:1008600053632CE00D2A15D203681D6BD21F02EBD7
:10087000820204FA02F225EA02021A630A8893B29B
:100880000A79D21F02EB820293400268146B234361
:10089000136314E00368DD6A0D3A02EB820204FA86
:1008A00002F225EA0202DA620A8893B20A790D3A64
:1008B00002EB820293400268D46A2343D362184A4F
:1008C000184B04689C4206D10C68122C03D1546862
:1008D00044F48004546004689C421CD10B68102BC3
:1008E00001D0112B17D1536843F4000353600968FA
:1008F000102910D10C490D4A0968B1FBF2F101EB46
:10090000810149000091009929B10099491E009187
:1009100000990029F9D180F83CC038BC002070470C
:1009200000230140002001400000002040420F0051
:100930007047704770B5044620680568466805F042
:10094000020106F0200200292DD062B3216C11F0C3
:10095000100F03D1216C41F400712164816811F002
:10096000405F19D1217EB9B9C16A11F4700F03D06B
:10097000816811F4806F0FD1416821F0200141603E
:10098000206C20F480702064206C10F4805F03D110
:10099000206C40F0010020642046FFF7C9FF216869
:1009A0006FF01200086005F0040006F08001B0B39B
:1009B000A9B3206C10F0100F03D1206C40F400504C
:1009C00020642068816811F4401F21D1816B11F4EB
:1009D000401F03D0816811F4806F19D1416811F470
:1009E000806F15D1816811F0405F11D1217E79B9F6
:1009F000416821F080014160206C20F48050206427
:100A0000206C10F4807F03D1206C40F00100206442
:100A10002046FFF7D2FE21686FF00C00086005F059
:100A2000010006F0400180B179B12068006810F043
:100A3000010F0AD0206C40F480302064204600F082
:100A400045F821686FF00100086005F0200006F00D
:100A5000806100280ED000290CD0606C40F00200AC
:100A6000606420686FF0200505602046FFF761FF95
:100A70002068056070BD70B504460025002C03D0C9
:100A8000206C002610B107E0012070BD204600F068
:100A90001FF8666484F83C60206C10F0100F04D0DE
:100AA000012584F83C60284670BD206C20F48850F5
:100AB00040F0020020642046FFF7E4FD6664206CED
:100AC00020F0020040F001002064EAE770470000D7
:100AD00010B586B0044614216846FFF7A9FB1549F6
:100AE0002068884224D114480021026842F48072B0
:100AF0000260006800F4807005900F4814380268A6
:100B000042F004020260006800F0040005902E200C
:100B100000900320CDE901016946084800F088F8FB
:100B200000221146122000F017FA122000F006FAF7
:100B300006B010BD002001404438024000080240C9
:100B40002DE9F0410446A66D00F096F9054694F8AB
:100B500035000027022806D08020606584F83470B4
:100B60000120BDE8F0812068016821F016010160D4
:100B70002068416921F080014161206C08B9A06CB6
:100B800020B12068016821F0080101602068016837
:100B900021F0010101602068006810F0010F12D0FF
:100BA00000F06AF9401B052808D920206065032061
:100BB00084F8350084F83470BDE8F081206800685E
:100BC00010F0010FECD194F85C003F2101FA00F025
:100BD000B060012084F8350084F834700020BDE84E
:100BE000F08190F83510022903D080214165012061
:100BF0007047052180F835100068016821F0010177
:100C0000016000207047000070B5044600F034F920
:100C10000546B4F1FF3F02D004480078044400F0D8
:100C20002BF9401BA042FAD370BD00000C0000203D
:100C30002DE9F84F0022DFF818A2DFF810924FF0EC
:100C4000010E03274FF00F08AAF1040B0EFA02FC65
:100C50000B6803EA0C0363457DD10C7904F00304AF
:100C6000012C01D0022C14D18568540007FA04F637
:100C7000B543CE6806FA04F42C438460446824EA41
:100C80000C0C0C79C4F30014944044EA0C0CC0F82A
:100C900004C0D1F804C037EA0C0C0CD0C4684FEA89
:100CA000420C07FA0CF5AC438D6805FA0CFC4CEAD3
:100CB000040CC0F80CC091F804C00CF0030CBCF19B
:100CC000020F12D14FEAD20C00EB8C04256A4FEAD6
:100CD000427C4FEADC6C08FA0CF6B5430E6906FA62
:100CE0000CFC4CEA050CC4F820C004684FEA420C26
:100CF00007FA0CF5AC430D7905F0030505FA0CFC79
:100D00004CEA040CC0F800C0D1F804C01CF4403F09
:100D10007DD0D9F800C04CF4804CC9F800C0D9F897
:100D200000C00CF4804CCDF800C022F0030C0CF194
:100D3000804505F59835D5F808C89407240F08FABA
:100D400004F62CEA0606A0F1804CBCF5003C64D009
:100D5000A0F1804C00E05AE0BCF5013C60D0A0F16D
:100D6000804CBCF5023C5ED0A0F1804CBCF5033C4D
:100D70005CD0A0F1804CBCF5043C5AD0A0F1804C72
:100D8000BCF5053C58D0A0F1804CBCF5063C56D0D3
:100D9000A0F1804CBCF5073C54D04FF0080C0CFA85
:100DA00004FC4CEA060CC5F808C8DAF800C02CEAC6
:100DB000030C4C6814F4801F01D04CEA030CCAF8F1
:100DC00000C0244CD4F800C02CEA030C4D6815F484
:100DD000001F01D04CEA030CC4F800C0DBF800C0CF
:100DE0002CEA030C4C6814F4003F01D04CEA030CCD
:100DF000CBF800C0184CD4F800C02CEA030C4D68A6
:100E000015F4803F01D04CEA030CC4F800C0521C1A
:100E1000102AFFF41BAFBDE8F88F4FF0000CBEE7BF
:100E20004FF0010CBBE74FF0020CB8E74FF0030C9A
:100E3000B5E74FF0040CB2E74FF0050CAFE74FF009
:100E4000060CACE74FF0070CA9E70000443802405D
:100E5000083C01400C3C0140003C01400069084254
:100E600001D00120704700207047002A01D0816125
:100E7000704709048161704701488068704700002D
:100E80000C0000200248816802781144816070479C
:100E90000C00002010B50B48016841F4007101609E
:100EA000016841F480610160016841F48071016072
:100EB000032000F085F8002000F006F800F026F886
:100EC000002010BD003C024070B504460D4D4FF4AB
:100ED0007A712878B1FBF0F00B490968B1FBF0F0AA
:100EE00000F0DCFB08B1012070BD102C07D20022FD
:100EF0002146501E00F030F86C60002070BD0120CB
:100F000070BD00000C000020000000200A4808B559
:100F1000016841F480410160006800F48040009065
:100F20000548001F016841F080510160006800F031
:100F30008050009008BD00004438024000280ADBC1
:100F400000F01F01012202FA01F14009800000F1C6
:100F5000E020C0F80011704710B4184B1B68C3F3B1
:100F60000223C3F1070CBCF1040F01D94FF0040CAC
:100F70001C1D072C01D2002300E0DB1E012404FA13
:100F80000CFCACF1010C0CEA0101994004FA03F3EA
:100F90005B1E1A401143002806DB00F1E020090126
:100FA00080F8001410BC704700F00F0000F1E02042
:100FB000090180F8141D10BC704700000CED00E022
:100FC00000F00700064A11684FF6FF03194041EA96
:100FD000002040F0FD7040F080601060704700001D
:100FE0000CED00E02DE9F04704460D46002C13D02F
:100FF000DFF85491D9F80000EFB200F00700A842E2
:101000000DD289F80070D9F8000000F00700A8425E
:1010100005D00120BDE8F0870120BDE8F0872068F9
:101020004A4E10F0020F14D010F0040F03D03068B5
:1010300040F4E0503060207810F0080F03D03068A2
:1010400040F4604030603068A16820F0F000084350
:101050003060207810F0010F3ED060683C490128D4
:1010600008D002280DD003280BD0096811F0020F18
:1010700028D00AE0096811F4003F06D10120BDE83C
:10108000F087096811F0007F19D0316821F0030161
:1010900008433060FFF7F0FE80463068616800F07A
:1010A0000C00B0EB810F17D041F2883AFFF7E4FE55
:1010B000A0EB0800504508D90320BDE8F0870120C7
:1010C000BDE8F0870120BDE8F0873068616800F076
:1010D0000C00B0EB810FE9D1D9F8000000F0070057
:1010E000A8420AD989F80070D9F8000000F007007A
:1010F000A84202D00120BDE8F087207810F0040F4C
:1011000005D03068E16820F4E05008433060207872
:1011100010F0080F06D03068216920F4604040EAE2
:10112000C100306000F042F831680A4AC1F303118F
:10113000515CC8400849086008480068FFF7C4FED1
:101140000020BDE8F0870000003C02400838024063
:1011500000380240183A000800000020100000206B
:1011600001480068704700000000002000B5FFF74C
:10117000F7FF04490968044AC1F38221515CC84061
:1011800000BD000008380240283A000800B5FFF70B
:10119000E7FF04490968044AC1F34231515CC84081
:1011A00000BD000008380240283A000810B5174872
:1011B000006810F00C01164816D04310042912D014
:1011C000082911D1134C216801F03F02216811F464
:1011D000800F0AD02068C0F38810A0FB0301002311
:1011E000FEF7EEFF09E0184610BD21680023C1F3A9
:1011F0008811A1FB0001FEF7E3FF2168C1F3014163
:10120000491C4900B0FBF1F010BD00000838024055
:101210000024F400043802402DE9F84F0446002C65
:1012200012D02078FB4E10F0010FA6F1040563D018
:10123000301D016801F00C0104290CD0006800F099
:101240000C00082803D010E00120BDE8F88F3068BA
:1012500010F4800F09D0286810F4003F4CD060686B
:10126000002849D10120BDE8F88F6068B0F5803FC3
:1012700014D0B0F5A02F16D0286820F48030286054
:10128000286820F480202860606810B3FFF7F4FD20
:101290000746286810F4003F0ED02DE0286840F47F
:1012A00080302860F0E7286840F4802028602868B3
:1012B00040F480302860E7E7FFF7DEFDC01B6428BC
:1012C00002D90320BDE8F88F286810F4003FF3D05E
:1012D00012E0FFF7D1FD0746286810F4003F0BD05D
:1012E000FFF7CAFDC01B642802D90320BDE8F88FB0
:1012F000286810F4003FF3D12078C74F10F0020F98
:101300004FF0000957D0C548016811F00C0F14D0F8
:10131000006800F00C00082803D1306810F4800F3A
:101320000BD0E06880B301203860FFF7A5FD804650
:10133000286810F0020F12D01EE0286810F0020F8B
:1013400005D0E068012802D00120BDE8F88F2868A8
:10135000216920F0F80040EAC10028602BE0FFF787
:101360008BFDA0EB0800022802D90320BDE8F88F0E
:10137000286810F0020FF2D02868216920F0F800E8
:1013800040EAC100286016E0FFE7C7F80090FFF7C9
:1013900073FD8046286810F0020F0CD0FFF76CFD3B
:1013A000A0EB0800022802D90320BDE8F88F2868C6
:1013B00010F0020FF2D1207810F0080F35D09848C5
:1013C000DFF860A26169C1B101210160FFF754FD3E
:1013D0008046DAF8000010F0020F26D1FFF74CFD2E
:1013E000A0EB0800022802D90320BDE8F88FDAF844
:1013F000000010F0020FF1D017E0C0F80090FFF7E6
:101400003BFD8046DAF8000010F0020F0DD0FFF728
:1014100033FDA0EB0800022802D90320BDE8F88FB5
:10142000DAF8000010F0020FF1D1207810F0040F6C
:1014300071D04FF000087C48006810F0805F0AD13E
:101440007948016841F080510160006800F08050E7
:1014500000904FF00108DFF8D4B1DBF8000010F481
:10146000807F1BD1DBF8000040F48070CBF80000D7
:10147000FFF702FD8246DBF8000010F4807F0DD1FB
:10148000FFF7FAFCA0EB0A00022802D90320BDE80E
:10149000F88FDBF8000010F4807FF1D0A068DFF84F
:1014A00090B1012818D005281DD0DBF8000020F0ED
:1014B0000100CBF80000DBF8000020F00400CBF8BE
:1014C0000000A06840B3FFF7D7FC8246DBF80000BD
:1014D00010F0020F14D03EE0DBF8000040F00100F5
:1014E000CBF80000EDE7DBF8000040F00400CBF89B
:1014F0000000DBF8000040F00100CBF80000E0E75E
:10150000FFF7BAFCA0EB0A0141F28830814204D90E
:101510000320BDE8F88F26E005E0DBF8000010F0BE
:10152000020FEDD017E0FFF7A7FC8246DBF80000C2
:1015300010F0020F0FD0FFF79FFCA0EB0A0141F261
:101540008830814202D90320BDE8F88FDBF8000023
:1015500010F0020FEFD1B8F1010F04D13248016849
:1015600021F080510160A069F0B32C4909684FF067
:10157000FF3801F00C01082966D0022810D0C7F806
:101580006090FFF779FC0446286810F0007F2BD0AC
:10159000FFF772FC001B022851D90320BDE8F88F29
:1015A000C7F86090FFF768FC8146286810F0007F5C
:1015B0000CD0FFF761FCA0EB0900022802D9032040
:1015C000BDE8F88F286810F0007FF2D1216AE06949
:1015D000A26A0843616A08EB5202890141EA0241AA
:1015E000084394F82C1000E055E040EA01603060B8
:1015F00001203866FFF740FC0446286810F0007FA1
:1016000049D1FFF739FC001B022813D90320BDE89C
:10161000F88F0000043802400000474208380240BA
:10162000800E47427438024040380240007000404B
:1016300070380240286810F0007FE2D02BE0286864
:1016400010F0007FA4D126E0012822D03068E269A2
:1016500000F4800191421AD1226A00F03F019142C8
:1016600015D147F6C071626A0140B1EB821F0ED1FD
:10167000A26A00F4403108EB5202B1EB024F06D1EE
:1016800094F82C1000F07060B0EB016F03D00120D3
:10169000BDE70120BBE70020B9E70000401EB0F124
:1016A000807F01D3012070474FF0E0214861044A58
:1016B000F02010700020886107200861002070472A
:1016C00023ED00E07047704730B490F83C20012AC9
:1016D00044D0012480F83C40022280F83D2002687A
:1016E000D2F804C093682CF0700C0D6845EA0C0C1D
:1016F000C2F804C00268A2F1804CBCF5803C20D046
:10170000B2F1804F1DD0A2F1804CBCF5806C18D096
:10171000A2F1804CBCF5006C13D0A2F1804CBCF55A
:10172000406C0ED0A2F1804CBCF5823C09D0A2F1F5
:10173000804CBCF5A03C04D0A2F1804CBCF5C05C50
:1017400004D123F0800349681943916080F83D403B
:10175000002180F83C1030BC0020704730BC0220D3
:10176000704710B50446002C03D094F83D0010B12A
:1017700007E0012010BD002084F83C00204600F066
:101780001FF8022084F83D00211D206801F0B4FB01
:10179000012084F8460084F83E0084F83F0084F875
:1017A000400084F8410084F8420084F8430084F843
:1017B000440084F8450084F83D00002010BD00007E
:1017C00008B500682049B0F1804F11D01F4A9042FF
:1017D00016D1086840F0100008600868002200F088
:1017E0001000009001213620FFF7B6FB362018E0EC
:1017F000086840F001000860086800F0010020E07F
:10180000134A904211D1086840F02000086008682F
:10181000002200F02000009011463720FFF79CFBCB
:101820003720BDE80840FFF789BB0A49884209D143
:101830000548001D016841F480310160006800F432
:101840008030009008BD0000403802400010004089
:10185000001400400040014090F83D10012901D0E3
:1018600001207047022180F83D100168CA6842F0EB
:101870000102CA600068A0F18041B1F5803126D034
:10188000B0F1804F23D0A0F18041B1F580611ED02E
:10189000A0F18041B1F5006119D0A0F18041B1F50E
:1018A000406114D0A0F18041B1F582310FD0A0F198
:1018B0008041B1F5A0310AD0A0F18041B1F5C0510D
:1018C00005D0016841F00101016000207047816886
:1018D00001F007010629F8D0016841F0010101601B
:1018E000F3E770B50446002594F83C00012818D0B1
:1018F000012684F83C60022084F83D00206882685C
:1019000022F0770222F47F4282600868502839D0A2
:101910000EDC202854D006DC002851D0102811D12C
:101920004EE0022070BD30284AD040280AD13DE068
:10193000602831D070280DD0B0F5805F03D0B0F5AD
:10194000005F13D0012584F83D60002084F83C003E
:10195000284670BDCB684A688968206801F041FB61
:101960002068816841F077018160ECE7CB684A68C4
:101970008968206801F035FB2068816841F4804166
:101980008160E0E7CA684968206801F019FC5021CD
:10199000206801F031FBD6E7CA684968206801F089
:1019A00022FC6021206801F027FBCCE7CA68496867
:1019B000206801F005FC4021206801F01DFBC2E712
:1019C00022680146104601F017FBBCE770B50446DB
:1019D0000D46002C03D094F83D0010B107E0012023
:1019E00070BD002084F83C00204600F059F8022029
:1019F00084F83D002068816821F0070121F48041CE
:101A00008160211D206801F077FA2068836882696F
:101A1000016AD5F800C04CEA030322F0030222F465
:101A20004072AE69D5F808C042EA06224CEA0202CA
:101A300022F00C0222F4406222F0F00222F4704202
:101A4000EE69D5F80CC042EA06224CEA0202D5F84B
:101A500010C02E6A4FEA0C1C4CEA063C4CEA02020B
:101A600021F0220121F08801D5F804C06D6941EA16
:101A700005114CEA010183602068826120680162DF
:101A8000012084F8460084F83E0084F83F0084F882
:101A9000420084F8430084F83D00002070BD00003F
:101AA000F0B587B0044614216846FEF7C1FB4049F3
:101AB0003E4D206800223E4C14390223A8421AD120
:101AC000206840F001002060206800F001000590CF
:101AD000086840F0100008600868694600F01000CF
:101AE00005904FF420600090CDE901320120CDE94E
:101AF000032030481CE02E4D2F4F2D1FC026B8422A
:101B00001AD1286840F002002860286800F002001E
:101B10000590086840F00100086008680096CDE96B
:101B2000013200F00100CDE90430694603922348F8
:101B3000FFF77EF807B0F0BD214FB84219D12868F1
:101B400040F004002860286800F004000590086850
:101B500040F0080008600868694600F00800059039
:101B60004FF440500090CDE901321648CDE90323EF
:101B7000DEE7154DA842DDD1206840F0020020606C
:101B8000206800F002000590086840F0040008603A
:101B90000868009600F004000590CDE901320320AA
:101BA000CDE9032069460948C2E700000000014072
:101BB000443802400010024000040040000002408F
:101BC00000080040000C02400004014000080240F0
:101BD00030B5044694F83E0094F83F2094F8423023
:101BE00094F843C00225002904D004290DD001280F
:101BF0001ED116E0012801D1012B01D0012030BDFA
:101C000084F83E5084F842501CE0012A02D1BCF115
:101C1000010F01D0012030BD84F83F5084F84350BB
:101C200010E0012A04D1012B02D1BCF1010F01D037
:101C3000012030BD84F83E5084F83F5084F8425073
:101C400084F8435091B1042916D001220021206864
:101C500001F0B8F901220421206801F0B3F92068ED
:101C6000016841F001010160002030BD0122002126
:101C7000206801F0A7F9F2E701220421206801F0B1
:101C8000A1F9ECE7704770B50446206801694FF090
:101C9000000511F0020F17D0C16811F0020F13D028
:101CA000E91E0161012020772068806910F0030F90
:101CB00003D02046FFF7E6FF05E0204600F0DEF8FF
:101CC000204600F077F925772068016911F0040FAC
:101CD00018D0C16811F0040F14D06FF00401016135
:101CE000022020772068806910F4407F03D02046CE
:101CF000FFF7C8FF05E0204600F0C0F8204600F0DE
:101D000059F925772068016911F0080F18D0C168CA
:101D100011F0080F14D06FF0080101610420207742
:101D20002068C06910F0030F03D02046FFF7AAFF18
:101D300005E0204600F0A2F8204600F03BF92577A8
:101D40002068016911F0100F18D0C16811F0100F50
:101D500014D06FF010010161082020772068C0695D
:101D600010F4407F03D02046FFF78CFF05E02046AB
:101D700000F084F8204600F01DF9257720680169FD
:101D800011F0010F09D0C16811F0010F05D06FF0FB
:101D900001010161204600F07DF92068016911F020
:101DA000800F09D0C16811F0800F05D06FF080015D
:101DB00001612046FFF786FC2068016911F0400FA1
:101DC00009D0C16811F0400F05D06FF040010161EA
:101DD000204600F07FF92068016911F0200F0BD038
:101DE000C16811F0200F07D06FF02001016120467B
:101DF000BDE87040FFF767BC70BD000010B586B04D
:101E0000044614216846FEF713FA20680022174999
:101E10000223B0F1804F17D0154CA04212D10868B0
:101E200040F0100008600868694600F01000059056
:101E300060200090CDE901320320CDE903200D4858
:101E4000FEF7F6FE06B010BD086840F0010008601D
:101E50000868694600F0010005900F200090CDE968
:101E600001320120CDE903200348E9E73038024080
:101E7000004001400010024000000240704770B571
:101E800004460D46002694F83C0001280FD001209E
:101E900084F83C006AB1042A1FD0082A32D00C2AE8
:101EA00044D00126002084F83C00304670BD02205A
:101EB00070BD2946206801F0A7F82068816941F0CB
:101EC000080181612068816921F004018161206835
:101ED00081692A6911438161E4E72946206801F09C
:101EE000CBF82068816941F40061816120688169D3
:101EF00021F480618161206881692A6941EA0221B7
:101F00008161CFE72946206801F0F2F82068C169B5
:101F100041F00801C1612068C16921F00401C1617B
:101F20002068C1692A691143C161BBE7294620685D
:101F300001F01AF92068C16941F40061C1612068AB
:101F4000C16921F48061C1612068C1692A6941EADF
:101F50000221C161A6E710B50446002C03D094F815
:101F60003D0010B107E0012010BD002084F83C00C6
:101F7000204600F01EF8022084F83D00211D206854
:101F800000F0BAFF012084F8460084F83E0084F88F
:101F90003F0084F8400084F8410084F8420084F84F
:101FA000430084F8440084F8450084F83D00002094
:101FB00010BD70477047000010B50446002909D0D5
:101FC00004290AD008290BD094F8410001280AD02E
:101FD000012010BD94F83E00F8E794F83F00F5E7C3
:101FE00094F84000F2E70220D9B3042947D0082929
:101FF00048D084F841000122206800F0E3FF234A22
:1020000020682349904201D0884203D1436C43F4B5
:10201000004343642068904224D0B0F1804F21D027
:10202000A0F18042B2F580621CD0A0F18042B2F5EE
:10203000006217D0A0F18042B2F5406212D088420F
:1020400010D0A0F18041B1F5A0310BD0A0F18041BA
:10205000B1F5C05106D0016841F0010101600020D6
:1020600010BD09E0816801F007010629F7D0016879
:1020700041F001010160F2E784F83E00BBE784F81B
:102080003F00B8E784F84000B5E7000000000140D9
:102090000004014000680D49884215D10C48816850
:1020A000491C81600178491C01704178491C4170CC
:1020B0008178491C8170C178491CC1700179491C23
:1020C00001714179491C41717047000000140040C2
:1020D0001C0000207047704770470000F8B50446A8
:1020E00022681068D168536900F00F0CBCF1000F32
:1020F0000AD110F0200F07D011F0200F04D0204695
:10210000BDE8F84001F0BDB80025BCF1000F75D066
:1021100003F0010C01F490765CEA06066ED010F034
:10212000010F06D011F4807F03D0226C42F001022F
:10213000226410F0040F06D013F0010F03D0226CBC
:1021400042F00202226410F0020F06D013F0010FD9
:1021500003D0226C42F00402226410F0080F08D071
:1021600001F0200252EA0C0203D0226C42F0080275
:102170002264226C002A35D010F0200F05D011F017
:10218000200F02D0204601F07CF820684069C0F39F
:102190008010216C11F0080F00D148B3204601F0E7
:1021A0003CF82068406910F0400F1CD020681430C3
:1021B00050E8001F21F0400140E80012002AF5D14C
:1021C000A06B60B15C490165A06BFEF70AFD0028B9
:1021D00008D0A06B016D01B0BDE8F0400847204673
:1021E000FFF77AFFF8BD2046FFF776FFF8BD05E060
:1021F000FFE72046FFF770FF2564F8BD236B012B36
:102200007ED110F0100F7BD011F0100F7ED010682F
:102210005068009050694FF0200310F0400F43D0F9
:10222000A16B0868406880B20028E6D0A28D824287
:10223000E3D9E085C869B0F5807F2DD020680C30E7
:1022400050E8001F21F4807140E80012002AF5D107
:102250002068143050E8001F21F0010140E800120E
:10226000002AF5D12068143050E8001F21F0400109
:1022700040E80012002AF5D184F83E30256320683A
:102280000C3050E8001F21F0100140E80012002A35
:10229000F5D1A06BFEF754FCA08DE18D401A81B200
:1022A0002046FFF718FFF8BDA08DE18D401A81B2DE
:1022B000E08D0028F7D00029F5D020680C3050E8D8
:1022C000002F22F4907240E8002CBCF1000FF4D1F2
:1022D0002068143050E8002F22F0010240E8002C62
:1022E000BCF1000FF4D184F83E30256320680C3037
:1022F00050E8002F22F0100240E80023002B00E0FD
:1023000004E0F3D12046FFF7E6FEF8BD10F0800FA1
:1023100007D011F0800F04D02046BDE8F84001F04E
:10232000B1B810F0400FF0D011F0400FEDD02046C2
:10233000BDE8F84000F098BF0B32000870B50446C5
:10234000002C04D094F83D00002510B106E00120D7
:1023500070BD84F83C50204600F022F8242084F818
:102360003D002068C16821F40051C160204600F0A2
:10237000EDFF2068016921F4904101612068416905
:1023800021F02A0141612068C16841F40051C16017
:102390002564202084F83D0084F83E00002070BDB4
:1023A000F0B587B0044614216846FDF741FF364B6F
:1023B00020680022354902240325072698421AD1B5
:1023C00032481430036843F010030360006800F0E3
:1023D00010000590086840F001000860086802AB32
:1023E00000F0010005906802CDE9000483E8640074
:1023F0006946274844E0254B264F1033B84223D185
:10240000186840F400301860186800F40030059037
:10241000086840F008000860086802AF00F0080093
:1024200005906020CDE9000487E8640069461A48F9
:10243000FEF7FEFB002211462620FEF78DFD26202A
:10244000FEF77CFD07B0F0BD144FB842FAD1186812
:1024500040F480201860186800F480200590086817
:1024600040F002000860086802AF00F0020005902A
:102470004FF44060CDE9000487E8640069460848ED
:10248000FEF7D6FBDEE700000010014030380240C6
:102490000000024000440040000C024000480040A0
:1024A0000004024090F83E30202B01D002207047FB
:1024B00059B152B190F83C30012B08D0012380F87B
:1024C0003C300023036300F0BFBF012070470220AF
:1024D00070470000064910B5884208D101F008F89D
:1024E000BDE81040082203490148FFF7DBBF10BDDB
:1024F000BC030020B00200207047FEE710B500F0DA
:1025000009FC012010BD10B501F046FA012010BDF4
:1025100010B500F00BFB012010BD00007FB50024BA
:1025200015480094019402941249039401604FF4F9
:102530008031C0E901140461047680F820400F491D
:10254000C0E90A140125C561C46080F830404561C6
:10255000FEF791FA08B1FEF72FF90F20CDE900053B
:10256000694602940448FEF729F9002801D0FEF7D5
:1025700023F97FBD00200140280000200100000F4A
:102580002DE9F04F87B014216846FDF751FE5348FE
:102590000024016841F010010160016801F01001A0
:1025A0000591016841F004010160016801F0040136
:1025B0000591016841F080010160016801F080012E
:1025C0000591016841F001010160016801F001011C
:1025D0000591016841F002010160016801F002010A
:1025E0000591016841F0080101600068DFF8F080A2
:1025F00000F0080041F210450590002229464046AF
:10260000FEF733FCDFF8DC904FF488760022314689
:102610004846FEF72AFCDFF8D0A04FF440470022DE
:1026200039465046FEF721FCDFF8C0B000220821F1
:102630005846FEF71AFC00950125CDE9015469467C
:1026400040460394FEF7F4FA4FF47850CDE90004C5
:10265000694648460294FEF7EBFA0096CDE901542C
:10266000694648460394FEF7E3FA4FF47040CDE91B
:102670000004694658460294FEF7DAFA40F21F1049
:10268000CDE90004694650460294FEF7D1FA00975E
:10269000CDE90154694650460394FEF7C9FA4FF458
:1026A0001040CDE90004694611480294FEF7C0FAD3
:1026B00008200090CDE90154694658460394FEF77E
:1026C000B7FA280200903003CDE901046946584664
:1026D000FEF7AEFA07B0BDE8F08F000030380240D8
:1026E0000010024000080240000C024000040240BA
:1026F0000000024010B58CB024216846FDF798FD1B
:1027000000241648099414490A94C0E900144FF6AD
:10271000FF71C0E902410461446184610120CDE997
:102720000004CDE902040494CDE90540079469460C
:102730000A480894FFF74AF908B1FEF73DF80994F2
:1027400009A906480A94FEF7BFFF002801D0FEF74A
:1027500033F80CB010BD00000000014070000020F4
:1027600010B58EB000240794089409940A940B9431
:102770001C2168460C94FDF75BFD2A484FF0804110
:102780000160A721C0E9011442F20F71C0E90314EE
:102790008461FEF7E6FF08B1FEF70EF84FF48050B3
:1027A000079007A91F48FFF79CF808B1FEF704F847
:1027B0001C48FFF7D0FB08B1FDF7FEFF0B940BA9F7
:1027C00018480C94FEF780FF08B1FDF7F5FF602074
:1027D000CDE9000402940022694612480494FFF7F0
:1027E0004EFB08B1FDF7E8FF042269460D48FFF7EC
:1027F00046FB08B1FDF7E0FF082269460948FFF7EC
:102800003EFB08B1FDF7D8FF0C2269460548FFF7EB
:1028100036FB08B1FDF7D0FF0248FFF7EFFA0EB024
:1028200010BD0000B800002010B58CB0242168460F
:10283000FDF7FEFC00241548099413490A94C0E9E9
:1028400000144FF6FF71C0E9024104618461012068
:10285000CDE90004CDE902040494CDE905400794D4
:1028600069460A480894FFF7B1F808B1FDF7A4FFDC
:10287000099409A905480A94FEF726FF002801D00B
:10288000FDF79AFF0CB010BD0004004000010020CD
:1028900010B58CB024216846FDF7CAFC0024154809
:1028A000099413490A94C0E900144FF6FF71C0E976
:1028B0000241046184610120CDE90004CDE90204F4
:1028C0000494CDE90540079469460A480894FFF747
:1028D0007DF808B1FDF770FF099409A905480A942D
:1028E000FEF7F2FE002801D0FDF766FF0CB010BD28
:1028F00000080040480100201CB500240E48009448
:102900000C4901940160A721C0E90114632184618D
:10291000C160FEF726FF08B1FDF74EFF009469463F
:1029200005480194FEF7D0FE002801D0FDF744FFD2
:102930001CBD000000100040900100201CB50024C8
:102940000E4800940C4901940160A721C0E90114CC
:1029500040F2E7318461C160FEF703FF08B1FDF783
:102960002BFF0094694605480194FEF7ADFE002850
:1029700001D0FDF721FF1CBD00140040D80100204C
:1029800010B58CB024216846FDF752FC002416488F
:10299000099414490A94C0E900144FF6FF71C0E984
:1029A00002410461446184610120CDE90004CDE964
:1029B00002040494CDE90540079469460A48089446
:1029C000FFF704F808B1FDF7F7FE099409A90648D6
:1029D0000A94FEF779FE002801D0FDF7EDFE0CB059
:1029E00010BD0000000401402002002010B58CB092
:1029F00000240794089409941C2168460A94FDF762
:102A000017FC1E481C49016044F29F11C0E90114E3
:102A1000C721C0E903148461FEF7A3FE08B1FDF7E6
:102A2000CBFE4FF48050079007A91448FEF759FFDA
:102A300008B1FDF7C1FE1148FFF78DFA08B1FDF7A7
:102A4000BBFE6020CDE900040294002269460B48D9
:102A50000494FFF714FA08B1FDF7AEFE04226946AC
:102A60000648FFF70CFA08B1FDF7A6FE0348FFF78A
:102A7000C5F90CB010BD0000004001406802002004
:102A80000C4810B50A4901604FF4E1314160002162
:102A900081600C22C160C0E904128161C161FFF74D
:102AA0004DFC002803D0BDE81040FDF785BE10BDE9
:102AB00000100140780300200C4810B50A4901605D
:102AC0004FF4E1314160002181600C22C160C0E916
:102AD00004128161C161FFF731FC002803D0BDE819
:102AE0001040FDF769BE10BD00440040BC0300204B
:102AF0000C4810B50A4901604FF4E13141600021F2
:102B000081600C22C160C0E904128161C161FFF7DC
:102B100015FC002803D0BDE81040FDF74DBE10BDE8
:102B20000048004000040020FEE7704770B52248CE
:102B300022490278097841F27070012A07D0022AEE
:102B400029D0002A36D1BDE8704000F053B839B121
:102B5000012909D002292DD1BDE8704000F09EBEA8
:102B6000BDE8704000F0C4BE40F64854204600F076
:102B700069FE134D4FF480512846FEF76FF928B1D6
:102B8000E9142846FEF76AF9002813D12046BDE86B
:102B9000704000F057BE51B1012908D0022909D177
:102BA00000F0A6FEBDE870408220FEF72DB800F0D0
:102BB00075FEF7E770BD000004000020050000204E
:102BC0000008024080EC030A9FED080A80ED080A25
:102BD00080ED070A80ED050A80ED040A80ED030A06
:102BE000C0ED0A1AC0ED091A70470000000000008D
:102BF000704770472DE9F05F424C4FF480573946DB
:102C00002046FEF72BF940F64859002855D04FF4DE
:102C1000006841462046FEF721F9E8B339462046D0
:102C2000FEF71CF9FD00384E4FF4806B012811D1DE
:102C300041462046FEF712F901280BD1594620469D
:102C4000FEF70CF9012805D129463046FEF706F9B2
:102C5000012832D029463046FEF700F92B4E2C4D84
:102C60004FF0000941F2707A60B359462046FEF7F2
:102C7000F5F800281FD1504600F010FEC6F800906D
:102C80002878012817D0B946474649462046FEF71E
:102C9000E5F8012807D000E00FE039462046FEF7AE
:102CA000DDF8012807D12878012804D0032802D0B4
:102CB00030687828E9D9BDE8F09F4846BDE8F05F64
:102CC00000F0C0BD504600F013FEC6F80090287812
:102CD0000128F0D0B946474649462046FEF7BEF8DF
:102CE000012805D039462046FEF7B8F80128E2D180
:102CF00028780128DFD00328DDD030687828EBD988
:102D0000D9E7000000080240000002402400002033
:102D10000400002070B5364C08212046FEF79EF8CE
:102D2000012811D004212046FEF798F801280BD085
:102D300001212046FEF792F8012805D00221204605
:102D4000FEF78CF8012828D108212046FEF786F8E6
:102D500041F27075012821D004212046FEF77EF84B
:102D600001281BD001212046FEF778F8012805D064
:102D700002212046FEF772F801280ED1284600F005
:102D800061FD01212046FEF769F8012805D10121E6
:102D90002046FEF763F80128F3D070BD15490020E6
:102DA000086040F6485000F021FDC820FDF72CFFD8
:102DB00008212046FEF752F8012805D104212046BB
:102DC000FEF74CF80128F3D001212046FEF746F823
:102DD0000028E2D102212046FEF740F80028DCD18D
:102DE000284600F05BFDBDE870406420FDF70CBF95
:102DF000000C024024000020FEF744B830B593B028
:102E000030216846FDF714FA14210CA8FDF710FADA
:102E10001C480025016841F080510160006800F005
:102E2000805011901848016841F4804101600068A9
:102E3000022400F4804011900120009000040190D1
:102E40008001CDE9064008AA0420A82182E81300E9
:102E50000B906846FEF7E0F900B1FEE70CA90F20E1
:102E600081E831004FF4A0500F904FF48050109043
:102E700005210CA8FEF7B6F8002800D0FEE713B035
:102E800030BD00004038024000700040104801682A
:102E900041F4700101600F48016841F001010160D7
:102EA0000C4A00210832116002680B4B1A40026084
:102EB000031D0A4A1A60026822F480220260054853
:102EC0000C300160024958068039086070470000E4
:102ED00088ED00E000380240FFFFF6FE10300024CD
:102EE0000148FEF7D0BE0000900100200148FEF727
:102EF000CABE0000D8010020F0B402682C4B2D4C53
:102F00002D4D2E4EDFF8B8C098420AD0B0F1804F58
:102F100007D0A04205D0A84203D0B04201D06045FE
:102F200003D122F070024F683A43984228D0B0F1A2
:102F3000804F25D0A04223D0A84221D0B0421FD03C
:102F400060451DD0A0F18044B4F5A03418D0A0F1A4
:102F50008044B4F5A23413D0A0F18044B4F5A43475
:102F60000ED0A0F18044B4F5C05409D0A0F1804443
:102F7000B4F5E05404D0A0F18044B4F5005403D17A
:102F800022F44072CC6822434C6922F08002224332
:102F900002608A68C2620A688262984201D0604513
:102FA00001D10969016301214161F0BC7047000052
:102FB000000001400004004000080040000C0040F8
:102FC0000004014001F01F0101238B40D0F820C014
:102FD0002CEA03030362036A02FA01F11943016256
:102FE0007047D0F808C02CF47F4C42EA032211430A
:102FF00041EA0C0181607047826822F0700211433F
:1030000041F007018160704770B4026A22F001024A
:103010000262036A4268D0F818C02CF0700C2CF0E1
:10302000030C0C6844EA0C0C23F002038C68234365
:103030000F4C104DA04201D0A84205D123F0080347
:10304000CE68334323F00403A04201D0A84207D145
:1030500022F4807222F400724C6922438C6922436C
:103060004260C0F818C049684163036270BC704791
:10307000000001400004014070B4026A22F0100216
:103080000262036A4268D0F818C02CF4E04C2CF4B9
:10309000407C0C684CEA042C23F020038C6843EA43
:1030A0000413114C114DA04201D0A84206D123F0C7
:1030B0008003CE6843EA061323F04003A04201D008
:1030C000A84209D122F4806222F400624C6942EAEB
:1030D00084028C6942EA84024260C0F818C04968E0
:1030E0008163036270BC704700000140000401402E
:1030F00070B4026A22F480720262036A4268D0F8F5
:103100001CC02CF0700C2CF0030C0C6844EA0C0C66
:1031100023F400738C6843EA0423114C114DA04240
:1031200001D0A84206D123F40063CE6843EA062307
:1031300023F48063A04201D0A84209D122F4805236
:1031400022F400524C6942EA04128C6942EA0412E9
:103150004260C0F81CC04968C163036270BC70471C
:10316000000001400004014010B4026A22F48052C1
:103170000262D0F820C04268C36923F4E04323F41C
:1031800040730C6843EA04232CF4005C8C684CEA1E
:10319000043CA0F18044B4F5803404D0A0F1804414
:1031A000B4F5823404D122F480424C6942EA84129C
:1031B0004260C36149680164C0F820C010BC704718
:1031C000036AD0F820C02CF0010CC0F820C0D0F861
:1031D00018C02CF0F00C4CEA021223F00A03194339
:1031E000826101627047036A23F010030362D0F822
:1031F00018C0036A2CF4704C4CEA023223F0A0038E
:1032000043EA011182610162704710B5806B0021B1
:10321000C185C184FEF760FF10BD01680C3151E823
:10322000002F22F4907241E80023002BF5D10168B1
:10323000143151E8002F22F0010241E80023002B55
:10324000F5D1016B012909D101680C3151E8002F3A
:1032500022F0100241E80023002BF5D1202180F854
:103260003E1000210163704710B50168CA6822F062
:103270004002CA60202180F83D10FFF73DF9002090
:1032800010BD08B590F83E10222901D0022008BDDB
:103290008268B2F5805F01D1016929B1816AB2F516
:1032A000805F1DD052B10BE0816A02685268C2F3A0
:1032B00008020A80816A891C816209E002697AB188
:1032C0000268526802F07F020A70816A491C8162BA
:1032D000C18D491E0904090CC18505D0002008BD17
:1032E000026852680A70F0E70168CA6822F020029A
:1032F000CA600168CA6822F48072CA6001684A69BB
:1033000022F001024A61202180F83E10016B012960
:1033100003D0FFF7DFF8002008BD0021016301683A
:103320000C3151E8002F22F0100241E80023002B5D
:10333000F5D101680A6812F0100F02D00A684968D6
:103340000091818DFEF7C7FEE5E700002DE9F04111
:10335000044620680169E26821F44051114301618B
:103360002169A068E269084361691143014320684B
:10337000C26822F4037222F414421143C16020682F
:103380004169A26921F44071114341612068A0F1B3
:103390008041B1F588312ED0A0F18041B1F58A315C
:1033A00029D0FDF7E3FE8446E16900201927254D69
:1033B0003226B1F5004F22D06068830F8200ACFB4B
:1033C0000701FCF7FDFE0146A5FB002040097A42FB
:1033D000424301EB820106EB0111A5FB01214909E2
:1033E00001F0F00202EB001001F00F010844216827
:1033F0008860BDE8F081FDF7C9FE8446D4E76168C6
:103400004A1840EB0003ACFB0701FCF7D9FE03466A
:10341000A5FB0010410918460A016FF01803594333
:1034200000EB810006EBC000A5FB0010400900F096
:10343000F80102EB410100F00700084421688860B0
:10344000BDE8F0811F85EB5181628285C285002134
:103450000164222280F83E2080F83C100169002996
:1034600004D00168CA6842F48072CA6001684A697F
:1034700042F001024A610068C16841F02001C16068
:103480000020704790F83D10212901D0022070479C
:103490008168B1F5805F01D1016961B1016A4A1C9F
:1034A0000262026809785160C18C491E0904090C46
:1034B000C1840AD013E0016A02680988C1F30801D7
:1034C0005160016A891C0162EEE70168CA6822F056
:1034D0008002CA600068C16841F04001C1600020FC
:1034E000704700000148FEF7F9BD0000BC03002052
:1034F00070B5324C2DED068B207841284FD1607885
:1035000050284CD16079FCF7B7FF9FED2D8B53EC21
:10351000182BFCF739FF41EC1A0B2079FCF7ACFFB4
:1035200053EC182BFCF730FF9FED271B53EC112BAE
:10353000FCF730FF41EC190BE078FCF79DFF53ECF2
:10354000182BFCF721FF9FED221B53EC112BFCF7EE
:1035500021FF53EC192BFCF776FE53EC1A2BFCF7EA
:1035600072FE9FED1D1B53EC112BFCF70DFFFCF7BA
:1035700090FF1B49002502234860A2780124412ABC
:1035800004D04E2A04D0422A04D004E00C7002E099
:103590000D7000E00B70134A904203D34B70BDECEA
:1035A000068B70BD104B904203D2984201DA4C70EA
:1035B000F5E79842F3DB4D70F1E70000B002002020
:1035C000000000000000484000000000000024400F
:1035D00000000000000059400000000000006440AE
:1035E000040000200000F0C10000F041FEE702E00E
:1035F00008C8121F08C1002AFAD17047704700207E
:1036000001E001C1121F002AFBD1704710B5002153
:103610001E48FEF7D1FC04211C48FEF7CDFC082112
:103620001A48FEF7C9FC0C211848FEF7C5FC3C21DE
:103630001748FEF7CDFA1648FEF70EF93C2115485B
:10364000FEF7C6FA1348FEF707F93C211248FEF7C9
:10365000BFFA1148FEF700F93C211048FEF7B8FA0E
:103660000E48FEF7F9F80E48FEF7F6F80D48FEF79B
:10367000F3F8BDE81040DFED0C1AB7EE001ADFEDED
:103680000B0AB7EE000A0A48FFF79CBAB800002000
:1036900000010020480100207000002020020020CE
:1036A00090010020D801002000C0DA450000000091
:1036B00044040020FDF7EEFBFFF7A0FBFEF760FFE0
:1036C000FFF7DEF9FFF7F8F9FFF712FAFFF712F844
:1036D000FFF746F8FFF7A8F8FFF7DAF8FFF70CF95D
:1036E000FFF72CF9FFF74CF9FFF780F9FEF716FF0B
:1036F000082235493548FEF7D5FEFFF787FFDFF88A
:10370000D0A0344C344FDFF8D480354D4FF480696D
:10371000002649465046FDF7A1FB38B94FF4004159
:103720003048FDF79BFB08B9207898B12078012834
:10373000EFD138780A281AD33E7010212846FDF7B9
:103740008DFB012811D008212846FDF787FB0128B1
:1037500005D00CE000F0F8F801202070E9E7042122
:103760002846FDF77BFB012801D1FEF7CCFE102196
:103770002846FDF773FB0028CBD11B4800780528AD
:1037800001D3FEF7BBFE98F800100A29C1D388F8D0
:10379000006008212846FDF761FB0028B9D104210B
:1037A0002846FDF75BFB0028B3D101212846FDF731
:1037B00055FB0028ADD102212846FDF74FFB00281C
:1037C000A7D1FEF7A5FEA4E7B0020020BC030020AD
:1037D00000080240180000201C0000201E000020ED
:1037E000000C0240000002401D00002070B5114D89
:1037F000044628684463104E012211023046FDF74A
:1038000034FB28688463002210213046FDF72DFB2D
:103810002868C46300224FF480410848FDF725FB67
:1038200028680464BDE87040012291020448FDF755
:103830001CBB0000B800002000080240000C024041
:103840000010024070B5114D044628684463104EC4
:1038500000224FF480713046FDF707FB286884632F
:10386000012210213046FDF700FB2868C4630122C5
:1038700091030848FDF7F9FA28680464002231151D
:10388000BDE870400448FDF7F0BA0000B800002021
:1038900000080240000C02400010024070B5104DBC
:1038A0000446286844630F4E012211023046FDF79A
:1038B000DCFA28688463002210213046FDF7D5FA2F
:1038C0002868C463012291030748FDF7CEFA2868EF
:1038D000046400223115BDE870400448FDF7C5BA04
:1038E000B800002000080240000C02400010024016
:1038F00070B5114D044628684463104E00224FF401
:1039000080713046FDF7B1FA2868846301221021E6
:103910003046FDF7AAFA2868C46300224FF48041BC
:103920000748FDF7A2FA28680464BDE87040012248
:1039300091020448FDF799BAB8000020000802403F
:10394000000C02400010024010B540F6AC50FFF7EA
:103950004DFF104C01212046FDF780FA28B90221C5
:103960002046FDF77BFA0028F4D04FF46170FDF794
:103970004BF941F270742046FFF738FF4FF448705E
:10398000FDF742F92046FFF789FFBDE8104082208D
:10399000FDF73AB9000C02402DE9F0471D4C4FF4F9
:1039A000805529462046FDF759FA4FF4FA664FF440
:1039B0007A79E7144FF4005850B939462046FDF79C
:1039C0004DFA28B941462046FDF748FA012814D09F
:1039D0004FF47A60FFF762FF29462046FDF73EFA72
:1039E00028B139462046FDF739FA00280FD1414663
:1039F0002046FDF733FA012809D13046FFF722FFB0
:103A00004846FDF701F9BDE8F047FFF79DBFBDE867
:103A1000F0870000000802400000000000000000E5
:103A20000102030406070809000000000102030464
:103A3000503A00080000002028000000EE35000881
:103A4000783A00082800002048080000FE350008E9
:103A50000024F4000000000000000000010000004D
:103A60001000000000000000000000000000000046
:083A700000000000000000004E
:040000050800018965
:00000001FF
